{
  "_format": "hh-sol-artifact-1",
  "contractName": "InvoiceLottery",
  "sourceName": "contracts/InvoiceLottery.sol",
  "abi": [
    {
      "inputs": [
        {
          "internalType": "uint256",
          "name": "_durationMinutes",
          "type": "uint256"
        }
      ],
      "stateMutability": "nonpayable",
      "type": "constructor"
    },
    {
      "anonymous": false,
      "inputs": [
        {
          "indexed": false,
          "internalType": "address",
          "name": "participant",
          "type": "address"
        }
      ],
      "name": "InvoiceUploaded",
      "type": "event"
    },
    {
      "anonymous": false,
      "inputs": [
        {
          "indexed": false,
          "internalType": "address",
          "name": "winner",
          "type": "address"
        }
      ],
      "name": "WinnerSelected",
      "type": "event"
    },
    {
      "inputs": [
        {
          "internalType": "address",
          "name": "_user",
          "type": "address"
        }
      ],
      "name": "checkIfWinner",
      "outputs": [
        {
          "internalType": "bool",
          "name": "",
          "type": "bool"
        }
      ],
      "stateMutability": "view",
      "type": "function"
    },
    {
      "inputs": [],
      "name": "drawWinner",
      "outputs": [],
      "stateMutability": "nonpayable",
      "type": "function"
    },
    {
      "inputs": [],
      "name": "drawWinningNumbers",
      "outputs": [],
      "stateMutability": "nonpayable",
      "type": "function"
    },
    {
      "inputs": [],
      "name": "drawn",
      "outputs": [
        {
          "internalType": "bool",
          "name": "",
          "type": "bool"
        }
      ],
      "stateMutability": "view",
      "type": "function"
    },
    {
      "inputs": [
        {
          "internalType": "uint256",
          "name": "",
          "type": "uint256"
        }
      ],
      "name": "firstPrizes",
      "outputs": [
        {
          "internalType": "string",
          "name": "",
          "type": "string"
        }
      ],
      "stateMutability": "view",
      "type": "function"
    },
    {
      "inputs": [],
      "name": "getAllInvoices",
      "outputs": [
        {
          "components": [
            {
              "internalType": "address",
              "name": "participant",
              "type": "address"
            },
            {
              "internalType": "string",
              "name": "invoiceNumber",
              "type": "string"
            }
          ],
          "internalType": "struct InvoiceLottery.Invoice[]",
          "name": "",
          "type": "tuple[]"
        }
      ],
      "stateMutability": "view",
      "type": "function"
    },
    {
      "inputs": [],
      "name": "getParticipants",
      "outputs": [
        {
          "internalType": "address[]",
          "name": "",
          "type": "address[]"
        }
      ],
      "stateMutability": "view",
      "type": "function"
    },
    {
      "inputs": [],
      "name": "getWinningNumbers",
      "outputs": [
        {
          "internalType": "string",
          "name": "",
          "type": "string"
        },
        {
          "internalType": "string",
          "name": "",
          "type": "string"
        },
        {
          "internalType": "string[]",
          "name": "",
          "type": "string[]"
        }
      ],
      "stateMutability": "view",
      "type": "function"
    },
    {
      "inputs": [],
      "name": "grandPrize",
      "outputs": [
        {
          "internalType": "string",
          "name": "",
          "type": "string"
        }
      ],
      "stateMutability": "view",
      "type": "function"
    },
    {
      "inputs": [
        {
          "internalType": "uint256",
          "name": "",
          "type": "uint256"
        }
      ],
      "name": "invoices",
      "outputs": [
        {
          "internalType": "address",
          "name": "participant",
          "type": "address"
        },
        {
          "internalType": "string",
          "name": "invoiceNumber",
          "type": "string"
        }
      ],
      "stateMutability": "view",
      "type": "function"
    },
    {
      "inputs": [],
      "name": "lotteryEndTime",
      "outputs": [
        {
          "internalType": "uint256",
          "name": "",
          "type": "uint256"
        }
      ],
      "stateMutability": "view",
      "type": "function"
    },
    {
      "inputs": [],
      "name": "owner",
      "outputs": [
        {
          "internalType": "address",
          "name": "",
          "type": "address"
        }
      ],
      "stateMutability": "view",
      "type": "function"
    },
    {
      "inputs": [
        {
          "internalType": "uint256",
          "name": "",
          "type": "uint256"
        }
      ],
      "name": "participants",
      "outputs": [
        {
          "internalType": "address",
          "name": "",
          "type": "address"
        }
      ],
      "stateMutability": "view",
      "type": "function"
    },
    {
      "inputs": [],
      "name": "specialPrize",
      "outputs": [
        {
          "internalType": "string",
          "name": "",
          "type": "string"
        }
      ],
      "stateMutability": "view",
      "type": "function"
    },
    {
      "inputs": [
        {
          "internalType": "address[]",
          "name": "_participants",
          "type": "address[]"
        },
        {
          "internalType": "string[]",
          "name": "_invoiceNumbers",
          "type": "string[]"
        }
      ],
      "name": "uploadAllInvoices",
      "outputs": [],
      "stateMutability": "nonpayable",
      "type": "function"
    },
    {
      "inputs": [
        {
          "internalType": "string",
          "name": "_invoiceNumber",
          "type": "string"
        }
      ],
      "name": "uploadInvoice",
      "outputs": [],
      "stateMutability": "nonpayable",
      "type": "function"
    },
    {
      "inputs": [
        {
          "internalType": "address",
          "name": "",
          "type": "address"
        },
        {
          "internalType": "uint256",
          "name": "",
          "type": "uint256"
        }
      ],
      "name": "userInvoices",
      "outputs": [
        {
          "internalType": "string",
          "name": "",
          "type": "string"
        }
      ],
      "stateMutability": "view",
      "type": "function"
    },
    {
      "inputs": [],
      "name": "winner",
      "outputs": [
        {
          "internalType": "address",
          "name": "",
          "type": "address"
        }
      ],
      "stateMutability": "view",
      "type": "function"
    },
    {
      "inputs": [],
      "name": "winnerDrawn",
      "outputs": [
        {
          "internalType": "bool",
          "name": "",
          "type": "bool"
        }
      ],
      "stateMutability": "view",
      "type": "function"
    }
  ],
  "bytecode": "0x60806040523480156200001157600080fd5b5060405162003628380380620036288339818101604052810190620000379190620000fb565b336000806101000a81548173ffffffffffffffffffffffffffffffffffffffff021916908373ffffffffffffffffffffffffffffffffffffffff160217905550603c816200008691906200015c565b42620000939190620001a7565b6001819055506000600260006101000a81548160ff02191690831515021790555050620001e2565b600080fd5b6000819050919050565b620000d581620000c0565b8114620000e157600080fd5b50565b600081519050620000f581620000ca565b92915050565b600060208284031215620001145762000113620000bb565b5b60006200012484828501620000e4565b91505092915050565b7f4e487b7100000000000000000000000000000000000000000000000000000000600052601160045260246000fd5b60006200016982620000c0565b91506200017683620000c0565b92508282026200018681620000c0565b91508282048414831517620001a0576200019f6200012d565b5b5092915050565b6000620001b482620000c0565b9150620001c183620000c0565b9250828201905080821115620001dc57620001db6200012d565b5b92915050565b61343680620001f26000396000f3fe608060405234801561001057600080fd5b50600436106101215760003560e01c806380133a84116100ad578063ce76c5ca11610071578063ce76c5ca146102eb578063dfbf53ae14610309578063e73f5b6014610327578063fd915ef214610343578063ff8dfbb51461036157610121565b806380133a841461025757806384350e1d1461027357806389352288146102935780638da5cb5b146102c3578063b2185bb1146102e157610121565b8063570bdad6116100f4578063570bdad6146101d55780635aa68ac0146101f3578063608620aa1461021157806361c4c9971461021b578063620d7c4c1461023957610121565b80630ad6b0a51461012657806335c1d3491461015657806343662a7e146101865780634e6d1405146101a4575b600080fd5b610140600480360381019061013b9190611fc8565b610391565b60405161014d9190612098565b60405180910390f35b610170600480360381019061016b91906120ba565b61044a565b60405161017d91906120f6565b60405180910390f35b61018e610489565b60405161019b9190612120565b60405180910390f35b6101be60048036038101906101b991906120ba565b61048f565b6040516101cc92919061213b565b60405180910390f35b6101dd61056b565b6040516101ea91906122c3565b60405180910390f35b6101fb6106b2565b6040516102089190612394565b60405180910390f35b610219610740565b005b61022361091d565b60405161023091906123d1565b60405180910390f35b610241610930565b60405161024e9190612098565b60405180910390f35b610271600480360381019061026c91906126ca565b6109be565b005b61027b610df9565b60405161028a93929190612804565b60405180910390f35b6102ad60048036038101906102a89190612850565b611049565b6040516102ba91906123d1565b60405180910390f35b6102cb611212565b6040516102d891906120f6565b60405180910390f35b6102e9611236565b005b6102f36114dd565b6040516103009190612098565b60405180910390f35b61031161156b565b60405161031e91906120f6565b60405180910390f35b610341600480360381019061033c919061287d565b611591565b005b61034b6118cc565b60405161035891906123d1565b60405180910390f35b61037b600480360381019061037691906120ba565b6118df565b6040516103889190612098565b60405180910390f35b600560205281600052604060002081815481106103ad57600080fd5b906000526020600020016000915091505080546103c9906128f5565b80601f01602080910402602001604051908101604052809291908181526020018280546103f5906128f5565b80156104425780601f1061041757610100808354040283529160200191610442565b820191906000526020600020905b81548152906001019060200180831161042557829003601f168201915b505050505081565b6003818154811061045a57600080fd5b906000526020600020016000915054906101000a900473ffffffffffffffffffffffffffffffffffffffff1681565b60015481565b6004818154811061049f57600080fd5b90600052602060002090600202016000915090508060000160009054906101000a900473ffffffffffffffffffffffffffffffffffffffff16908060010180546104e8906128f5565b80601f0160208091040260200160405190810160405280929190818152602001828054610514906128f5565b80156105615780601f1061053657610100808354040283529160200191610561565b820191906000526020600020905b81548152906001019060200180831161054457829003601f168201915b5050505050905082565b60606004805480602002602001604051908101604052809291908181526020016000905b828210156106a957838290600052602060002090600202016040518060400160405290816000820160009054906101000a900473ffffffffffffffffffffffffffffffffffffffff1673ffffffffffffffffffffffffffffffffffffffff1673ffffffffffffffffffffffffffffffffffffffff168152602001600182018054610618906128f5565b80601f0160208091040260200160405190810160405280929190818152602001828054610644906128f5565b80156106915780601f1061066657610100808354040283529160200191610691565b820191906000526020600020905b81548152906001019060200180831161067457829003601f168201915b5050505050815250508152602001906001019061058f565b50505050905090565b6060600380548060200260200160405190810160405280929190818152602001828054801561073657602002820191906000526020600020905b8160009054906101000a900473ffffffffffffffffffffffffffffffffffffffff1673ffffffffffffffffffffffffffffffffffffffff16815260200190600101908083116106ec575b5050505050905090565b60008054906101000a900473ffffffffffffffffffffffffffffffffffffffff1673ffffffffffffffffffffffffffffffffffffffff163373ffffffffffffffffffffffffffffffffffffffff16146107ce576040517f08c379a00000000000000000000000000000000000000000000000000000000081526004016107c590612998565b60405180910390fd5b600960009054906101000a900460ff161561081e576040517f08c379a000000000000000000000000000000000000000000000000000000000815260040161081590612a2a565b60405180910390fd5b61082661198b565b600690816108349190612bf6565b5061083d61198b565b6007908161084b9190612bf6565b50600861085661198b565b9080600181540180825580915050600190039060005260206000200160009091909190915090816108879190612bf6565b50600861089261198b565b9080600181540180825580915050600190039060005260206000200160009091909190915090816108c39190612bf6565b5060086108ce61198b565b9080600181540180825580915050600190039060005260206000200160009091909190915090816108ff9190612bf6565b506001600960006101000a81548160ff021916908315150217905550565b600260009054906101000a900460ff1681565b6006805461093d906128f5565b80601f0160208091040260200160405190810160405280929190818152602001828054610969906128f5565b80156109b65780601f1061098b576101008083540402835291602001916109b6565b820191906000526020600020905b81548152906001019060200180831161099957829003601f168201915b505050505081565b60008054906101000a900473ffffffffffffffffffffffffffffffffffffffff1673ffffffffffffffffffffffffffffffffffffffff163373ffffffffffffffffffffffffffffffffffffffff1614610a4c576040517f08c379a0000000000000000000000000000000000000000000000000000000008152600401610a4390612998565b60405180910390fd5b8051825114610a90576040517f08c379a0000000000000000000000000000000000000000000000000000000008152600401610a8790612d3a565b60405180910390fd5b60005b8251811015610df4576008828281518110610ab157610ab0612d5a565b5b60200260200101515114610afa576040517f08c379a0000000000000000000000000000000000000000000000000000000008152600401610af190612dd5565b60405180910390fd5b610b1d828281518110610b1057610b0f612d5a565b5b6020026020010151611a1e565b610b5c576040517f08c379a0000000000000000000000000000000000000000000000000000000008152600401610b5390612e67565b60405180910390fd5b60046040518060400160405280858481518110610b7c57610b7b612d5a565b5b602002602001015173ffffffffffffffffffffffffffffffffffffffff168152602001848481518110610bb257610bb1612d5a565b5b6020026020010151815250908060018154018082558091505060019003906000526020600020906002020160009091909190915060008201518160000160006101000a81548173ffffffffffffffffffffffffffffffffffffffff021916908373ffffffffffffffffffffffffffffffffffffffff1602179055506020820151816001019081610c429190612bf6565b50505060056000848381518110610c5c57610c5b612d5a565b5b602002602001015173ffffffffffffffffffffffffffffffffffffffff1673ffffffffffffffffffffffffffffffffffffffff168152602001908152602001600020828281518110610cb157610cb0612d5a565b5b6020026020010151908060018154018082558091505060019003906000526020600020016000909190919091509081610cea9190612bf6565b50610d0e838281518110610d0157610d00612d5a565b5b6020026020010151611af2565b610d90576003838281518110610d2757610d26612d5a565b5b60200260200101519080600181540180825580915050600190039060005260206000200160009091909190916101000a81548173ffffffffffffffffffffffffffffffffffffffff021916908373ffffffffffffffffffffffffffffffffffffffff1602179055505b7f76b15acf6c73d7cd0153ba27cb226281306e02673473ed18b909c7a14764b604838281518110610dc457610dc3612d5a565b5b6020026020010151604051610dd991906120f6565b60405180910390a18080610dec90612eb6565b915050610a93565b505050565b6060806060600960009054906101000a900460ff16610e4d576040517f08c379a0000000000000000000000000000000000000000000000000000000008152600401610e4490612f70565b60405180910390fd5b600660076008828054610e5f906128f5565b80601f0160208091040260200160405190810160405280929190818152602001828054610e8b906128f5565b8015610ed85780601f10610ead57610100808354040283529160200191610ed8565b820191906000526020600020905b815481529060010190602001808311610ebb57829003601f168201915b50505050509250818054610eeb906128f5565b80601f0160208091040260200160405190810160405280929190818152602001828054610f17906128f5565b8015610f645780601f10610f3957610100808354040283529160200191610f64565b820191906000526020600020905b815481529060010190602001808311610f4757829003601f168201915b5050505050915080805480602002602001604051908101604052809291908181526020016000905b82821015611038578382906000526020600020018054610fab906128f5565b80601f0160208091040260200160405190810160405280929190818152602001828054610fd7906128f5565b80156110245780601f10610ff957610100808354040283529160200191611024565b820191906000526020600020905b81548152906001019060200180831161100757829003601f168201915b505050505081526020019060010190610f8c565b505050509050925092509250909192565b6000600960009054906101000a900460ff1661109a576040517f08c379a000000000000000000000000000000000000000000000000000000000815260040161109190612f70565b60405180910390fd5b6000600560008473ffffffffffffffffffffffffffffffffffffffff1673ffffffffffffffffffffffffffffffffffffffff168152602001908152602001600020805480602002602001604051908101604052809291908181526020016000905b828210156111a757838290600052602060002001805461111a906128f5565b80601f0160208091040260200160405190810160405280929190818152602001828054611146906128f5565b80156111935780601f1061116857610100808354040283529160200191611193565b820191906000526020600020905b81548152906001019060200180831161117657829003601f168201915b5050505050815260200190600101906110fb565b50505050905060005b81518110156112065760008282815181106111ce576111cd612d5a565b5b602002602001015190506111e181611ba0565b156111f2576001935050505061120d565b5080806111fe90612eb6565b9150506111b0565b5060009150505b919050565b60008054906101000a900473ffffffffffffffffffffffffffffffffffffffff1681565b60008054906101000a900473ffffffffffffffffffffffffffffffffffffffff1673ffffffffffffffffffffffffffffffffffffffff163373ffffffffffffffffffffffffffffffffffffffff16146112c4576040517f08c379a00000000000000000000000000000000000000000000000000000000081526004016112bb90612998565b60405180910390fd5b6001544211611308576040517f08c379a00000000000000000000000000000000000000000000000000000000081526004016112ff90612fdc565b60405180910390fd5b600260009054906101000a900460ff1615611358576040517f08c379a000000000000000000000000000000000000000000000000000000000815260040161134f90613048565b60405180910390fd5b6000600380549050116113a0576040517f08c379a0000000000000000000000000000000000000000000000000000000008152600401611397906130b4565b60405180910390fd5b600060038054905042446003805490506040516020016113c2939291906130f5565b6040516020818303038152906040528051906020012060001c6113e59190613161565b9050600381815481106113fb576113fa612d5a565b5b9060005260206000200160009054906101000a900473ffffffffffffffffffffffffffffffffffffffff16600260016101000a81548173ffffffffffffffffffffffffffffffffffffffff021916908373ffffffffffffffffffffffffffffffffffffffff1602179055506001600260006101000a81548160ff0219169083151502179055507f1d4c260f1824cd028e6c9e6e31c3a0b94f2513e7a641113ec759d382f9bdd5a1600260019054906101000a900473ffffffffffffffffffffffffffffffffffffffff166040516114d291906120f6565b60405180910390a150565b600780546114ea906128f5565b80601f0160208091040260200160405190810160405280929190818152602001828054611516906128f5565b80156115635780601f1061153857610100808354040283529160200191611563565b820191906000526020600020905b81548152906001019060200180831161154657829003601f168201915b505050505081565b600260019054906101000a900473ffffffffffffffffffffffffffffffffffffffff1681565b6001544211156115d6576040517f08c379a00000000000000000000000000000000000000000000000000000000081526004016115cd906131de565b60405180910390fd5b600881511461161a576040517f08c379a000000000000000000000000000000000000000000000000000000000815260040161161190612dd5565b60405180910390fd5b61162381611a1e565b611662576040517f08c379a000000000000000000000000000000000000000000000000000000000815260040161165990612e67565b60405180910390fd5b6000805b600380549050811015611700573373ffffffffffffffffffffffffffffffffffffffff166003828154811061169e5761169d612d5a565b5b9060005260206000200160009054906101000a900473ffffffffffffffffffffffffffffffffffffffff1673ffffffffffffffffffffffffffffffffffffffff16036116ed5760019150611700565b80806116f890612eb6565b915050611666565b508061176a576003339080600181540180825580915050600190039060005260206000200160009091909190916101000a81548173ffffffffffffffffffffffffffffffffffffffff021916908373ffffffffffffffffffffffffffffffffffffffff1602179055505b600460405180604001604052803373ffffffffffffffffffffffffffffffffffffffff16815260200184815250908060018154018082558091505060019003906000526020600020906002020160009091909190915060008201518160000160006101000a81548173ffffffffffffffffffffffffffffffffffffffff021916908373ffffffffffffffffffffffffffffffffffffffff160217905550602082015181600101908161181c9190612bf6565b505050600560003373ffffffffffffffffffffffffffffffffffffffff1673ffffffffffffffffffffffffffffffffffffffff168152602001908152602001600020829080600181540180825580915050600190039060005260206000200160009091909190915090816118909190612bf6565b507f76b15acf6c73d7cd0153ba27cb226281306e02673473ed18b909c7a14764b604336040516118c091906120f6565b60405180910390a15050565b600960009054906101000a900460ff1681565b600881815481106118ef57600080fd5b90600052602060002001600091509050805461190a906128f5565b80601f0160208091040260200160405190810160405280929190818152602001828054611936906128f5565b80156119835780601f1061195857610100808354040283529160200191611983565b820191906000526020600020905b81548152906001019060200180831161196657829003601f168201915b505050505081565b606060006305f5e1004244600480549050335a6040516020016119b2959493929190613246565b6040516020818303038152906040528051906020012060001c6119d59190613161565b905060006119e282611cff565b90505b600881511015611a165780604051602001611a00919061332d565b60405160208183030381529060405290506119e5565b809250505090565b60008082905060005b8151811015611ae657603060f81b828281518110611a4857611a47612d5a565b5b602001015160f81c60f81b7effffffffffffffffffffffffffffffffffffffffffffffffffffffffffffff19161080611ac35750603960f81b828281518110611a9457611a93612d5a565b5b602001015160f81c60f81b7effffffffffffffffffffffffffffffffffffffffffffffffffffffffffffff1916115b15611ad357600092505050611aed565b8080611ade90612eb6565b915050611a27565b5060019150505b919050565b600080600090505b600380549050811015611b95578273ffffffffffffffffffffffffffffffffffffffff1660038281548110611b3257611b31612d5a565b5b9060005260206000200160009054906101000a900473ffffffffffffffffffffffffffffffffffffffff1673ffffffffffffffffffffffffffffffffffffffff1603611b82576001915050611b9b565b8080611b8d90612eb6565b915050611afa565b50600090505b919050565b60006006604051602001611bb491906133d2565b6040516020818303038152906040528051906020012082604051602001611bdb91906133e9565b604051602081830303815290604052805190602001201480611c4957506007604051602001611c0a91906133d2565b6040516020818303038152906040528051906020012082604051602001611c3191906133e9565b60405160208183030381529060405280519060200120145b15611c575760019050611cfa565b60005b600880549050811015611cf45760088181548110611c7b57611c7a612d5a565b5b90600052602060002001604051602001611c9591906133d2565b6040516020818303038152906040528051906020012083604051602001611cbc91906133e9565b6040516020818303038152906040528051906020012003611ce1576001915050611cfa565b8080611cec90612eb6565b915050611c5a565b50600090505b919050565b606060006001611d0e84611dcd565b01905060008167ffffffffffffffff811115611d2d57611d2c6123f1565b5b6040519080825280601f01601f191660200182016040528015611d5f5781602001600182028036833780820191505090505b509050600082602001820190505b600115611dc2578080600190039150507f3031323334353637383961626364656600000000000000000000000000000000600a86061a8153600a8581611db657611db5613132565b5b04945060008503611d6d575b819350505050919050565b600080600090507a184f03e93ff9f4daa797ed6e38ed64bf6a1f0100000000000000008310611e2b577a184f03e93ff9f4daa797ed6e38ed64bf6a1f0100000000000000008381611e2157611e20613132565b5b0492506040810190505b6d04ee2d6d415b85acef81000000008310611e68576d04ee2d6d415b85acef81000000008381611e5e57611e5d613132565b5b0492506020810190505b662386f26fc100008310611e9757662386f26fc100008381611e8d57611e8c613132565b5b0492506010810190505b6305f5e1008310611ec0576305f5e1008381611eb657611eb5613132565b5b0492506008810190505b6127108310611ee5576127108381611edb57611eda613132565b5b0492506004810190505b60648310611f085760648381611efe57611efd613132565b5b0492506002810190505b600a8310611f17576001810190505b80915050919050565b6000604051905090565b600080fd5b600080fd5b600073ffffffffffffffffffffffffffffffffffffffff82169050919050565b6000611f5f82611f34565b9050919050565b611f6f81611f54565b8114611f7a57600080fd5b50565b600081359050611f8c81611f66565b92915050565b6000819050919050565b611fa581611f92565b8114611fb057600080fd5b50565b600081359050611fc281611f9c565b92915050565b60008060408385031215611fdf57611fde611f2a565b5b6000611fed85828601611f7d565b9250506020611ffe85828601611fb3565b9150509250929050565b600081519050919050565b600082825260208201905092915050565b60005b83811015612042578082015181840152602081019050612027565b60008484015250505050565b6000601f19601f8301169050919050565b600061206a82612008565b6120748185612013565b9350612084818560208601612024565b61208d8161204e565b840191505092915050565b600060208201905081810360008301526120b2818461205f565b905092915050565b6000602082840312156120d0576120cf611f2a565b5b60006120de84828501611fb3565b91505092915050565b6120f081611f54565b82525050565b600060208201905061210b60008301846120e7565b92915050565b61211a81611f92565b82525050565b60006020820190506121356000830184612111565b92915050565b600060408201905061215060008301856120e7565b8181036020830152612162818461205f565b90509392505050565b600081519050919050565b600082825260208201905092915050565b6000819050602082019050919050565b6121a081611f54565b82525050565b600082825260208201905092915050565b60006121c282612008565b6121cc81856121a6565b93506121dc818560208601612024565b6121e58161204e565b840191505092915050565b60006040830160008301516122086000860182612197565b506020830151848203602086015261222082826121b7565b9150508091505092915050565b600061223983836121f0565b905092915050565b6000602082019050919050565b60006122598261216b565b6122638185612176565b93508360208202850161227585612187565b8060005b858110156122b15784840389528151612292858261222d565b945061229d83612241565b925060208a01995050600181019050612279565b50829750879550505050505092915050565b600060208201905081810360008301526122dd818461224e565b905092915050565b600081519050919050565b600082825260208201905092915050565b6000819050602082019050919050565b600061231d8383612197565b60208301905092915050565b6000602082019050919050565b6000612341826122e5565b61234b81856122f0565b935061235683612301565b8060005b8381101561238757815161236e8882612311565b975061237983612329565b92505060018101905061235a565b5085935050505092915050565b600060208201905081810360008301526123ae8184612336565b905092915050565b60008115159050919050565b6123cb816123b6565b82525050565b60006020820190506123e660008301846123c2565b92915050565b600080fd5b7f4e487b7100000000000000000000000000000000000000000000000000000000600052604160045260246000fd5b6124298261204e565b810181811067ffffffffffffffff82111715612448576124476123f1565b5b80604052505050565b600061245b611f20565b90506124678282612420565b919050565b600067ffffffffffffffff821115612487576124866123f1565b5b602082029050602081019050919050565b600080fd5b60006124b06124ab8461246c565b612451565b905080838252602082019050602084028301858111156124d3576124d2612498565b5b835b818110156124fc57806124e88882611f7d565b8452602084019350506020810190506124d5565b5050509392505050565b600082601f83011261251b5761251a6123ec565b5b813561252b84826020860161249d565b91505092915050565b600067ffffffffffffffff82111561254f5761254e6123f1565b5b602082029050602081019050919050565b600080fd5b600067ffffffffffffffff8211156125805761257f6123f1565b5b6125898261204e565b9050602081019050919050565b82818337600083830152505050565b60006125b86125b384612565565b612451565b9050828152602081018484840111156125d4576125d3612560565b5b6125df848285612596565b509392505050565b600082601f8301126125fc576125fb6123ec565b5b813561260c8482602086016125a5565b91505092915050565b600061262861262384612534565b612451565b9050808382526020820190506020840283018581111561264b5761264a612498565b5b835b8181101561269257803567ffffffffffffffff8111156126705761266f6123ec565b5b80860161267d89826125e7565b8552602085019450505060208101905061264d565b5050509392505050565b600082601f8301126126b1576126b06123ec565b5b81356126c1848260208601612615565b91505092915050565b600080604083850312156126e1576126e0611f2a565b5b600083013567ffffffffffffffff8111156126ff576126fe611f2f565b5b61270b85828601612506565b925050602083013567ffffffffffffffff81111561272c5761272b611f2f565b5b6127388582860161269c565b9150509250929050565b600081519050919050565b600082825260208201905092915050565b6000819050602082019050919050565b600061277a83836121b7565b905092915050565b6000602082019050919050565b600061279a82612742565b6127a4818561274d565b9350836020820285016127b68561275e565b8060005b858110156127f257848403895281516127d3858261276e565b94506127de83612782565b925060208a019950506001810190506127ba565b50829750879550505050505092915050565b6000606082019050818103600083015261281e818661205f565b90508181036020830152612832818561205f565b90508181036040830152612846818461278f565b9050949350505050565b60006020828403121561286657612865611f2a565b5b600061287484828501611f7d565b91505092915050565b60006020828403121561289357612892611f2a565b5b600082013567ffffffffffffffff8111156128b1576128b0611f2f565b5b6128bd848285016125e7565b91505092915050565b7f4e487b7100000000000000000000000000000000000000000000000000000000600052602260045260246000fd5b6000600282049050600182168061290d57607f821691505b6020821081036129205761291f6128c6565b5b50919050565b7f4f6e6c79206f776e65722063616e2063616c6c20746869732066756e6374696f60008201527f6e2e000000000000000000000000000000000000000000000000000000000000602082015250565b6000612982602283612013565b915061298d82612926565b604082019050919050565b600060208201905081810360008301526129b181612975565b9050919050565b7f57696e6e696e67206e756d62657273206861766520616c72656164792062656560008201527f6e20647261776e00000000000000000000000000000000000000000000000000602082015250565b6000612a14602783612013565b9150612a1f826129b8565b604082019050919050565b60006020820190508181036000830152612a4381612a07565b9050919050565b60008190508160005260206000209050919050565b60006020601f8301049050919050565b600082821b905092915050565b600060088302612aac7fffffffffffffffffffffffffffffffffffffffffffffffffffffffffffffffff82612a6f565b612ab68683612a6f565b95508019841693508086168417925050509392505050565b6000819050919050565b6000612af3612aee612ae984611f92565b612ace565b611f92565b9050919050565b6000819050919050565b612b0d83612ad8565b612b21612b1982612afa565b848454612a7c565b825550505050565b600090565b612b36612b29565b612b41818484612b04565b505050565b5b81811015612b6557612b5a600082612b2e565b600181019050612b47565b5050565b601f821115612baa57612b7b81612a4a565b612b8484612a5f565b81016020851015612b93578190505b612ba7612b9f85612a5f565b830182612b46565b50505b505050565b600082821c905092915050565b6000612bcd60001984600802612baf565b1980831691505092915050565b6000612be68383612bbc565b9150826002028217905092915050565b612bff82612008565b67ffffffffffffffff811115612c1857612c176123f1565b5b612c2282546128f5565b612c2d828285612b69565b600060209050601f831160018114612c605760008415612c4e578287015190505b612c588582612bda565b865550612cc0565b601f198416612c6e86612a4a565b60005b82811015612c9657848901518255600182019150602085019450602081019050612c71565b86831015612cb35784890151612caf601f891682612bbc565b8355505b6001600288020188555050505b505050505050565b7f5061727469636970616e747320616e6420696e766f696365206e756d6265727360008201527f206c656e677468206d69736d6174636800000000000000000000000000000000602082015250565b6000612d24603083612013565b9150612d2f82612cc8565b604082019050919050565b60006020820190508181036000830152612d5381612d17565b9050919050565b7f4e487b7100000000000000000000000000000000000000000000000000000000600052603260045260246000fd5b7f496e766f696365206e756d626572206d75737420626520382064696769747300600082015250565b6000612dbf601f83612013565b9150612dca82612d89565b602082019050919050565b60006020820190508181036000830152612dee81612db2565b9050919050565b7f496e766f696365206e756d626572206d75737420636f6e7461696e206f6e6c7960008201527f2064696769747300000000000000000000000000000000000000000000000000602082015250565b6000612e51602783612013565b9150612e5c82612df5565b604082019050919050565b60006020820190508181036000830152612e8081612e44565b9050919050565b7f4e487b7100000000000000000000000000000000000000000000000000000000600052601160045260246000fd5b6000612ec182611f92565b91507fffffffffffffffffffffffffffffffffffffffffffffffffffffffffffffffff8203612ef357612ef2612e87565b5b600182019050919050565b7f57696e6e696e67206e756d626572732068617665206e6f74206265656e20647260008201527f61776e2079657400000000000000000000000000000000000000000000000000602082015250565b6000612f5a602783612013565b9150612f6582612efe565b604082019050919050565b60006020820190508181036000830152612f8981612f4d565b9050919050565b7f4c6f7474657279206973207374696c6c206f6e676f696e672e00000000000000600082015250565b6000612fc6601983612013565b9150612fd182612f90565b602082019050919050565b60006020820190508181036000830152612ff581612fb9565b9050919050565b7f57696e6e65722068617320616c7265616479206265656e20647261776e2e0000600082015250565b6000613032601e83612013565b915061303d82612ffc565b602082019050919050565b6000602082019050818103600083015261306181613025565b9050919050565b7f4e6f207061727469636970616e747320696e20746865206c6f74746572792e00600082015250565b600061309e601f83612013565b91506130a982613068565b602082019050919050565b600060208201905081810360008301526130cd81613091565b9050919050565b6000819050919050565b6130ef6130ea82611f92565b6130d4565b82525050565b600061310182866130de565b60208201915061311182856130de565b60208201915061312182846130de565b602082019150819050949350505050565b7f4e487b7100000000000000000000000000000000000000000000000000000000600052601260045260246000fd5b600061316c82611f92565b915061317783611f92565b92508261318757613186613132565b5b828206905092915050565b7f4c6f74746572792068617320656e6465642e0000000000000000000000000000600082015250565b60006131c8601283612013565b91506131d382613192565b602082019050919050565b600060208201905081810360008301526131f7816131bb565b9050919050565b60008160601b9050919050565b6000613216826131fe565b9050919050565b60006132288261320b565b9050919050565b61324061323b82611f54565b61321d565b82525050565b600061325282886130de565b60208201915061326282876130de565b60208201915061327282866130de565b602082019150613282828561322f565b60148201915061329282846130de565b6020820191508190509695505050505050565b600081905092915050565b7f3000000000000000000000000000000000000000000000000000000000000000600082015250565b60006132e66001836132a5565b91506132f1826132b0565b600182019050919050565b600061330782612008565b61331181856132a5565b9350613321818560208601612024565b80840191505092915050565b6000613338826132d9565b915061334482846132fc565b915081905092915050565b6000815461335c816128f5565b61336681866132a5565b945060018216600081146133815760018114613396576133c9565b60ff19831686528115158202860193506133c9565b61339f85612a4a565b60005b838110156133c1578154818901526001820191506020810190506133a2565b838801955050505b50505092915050565b60006133de828461334f565b915081905092915050565b60006133f582846132fc565b91508190509291505056fea2646970667358221220aca8e776f8f09566244e64d5bfa4456b49abdf8d8ff20b34d26501a39d5e06b064736f6c63430008140033",
  "linkReferences": {},
  "deployedLinkReferences": {}
}